{"abi":[{"type":"constructor","inputs":[{"name":"_uri","type":"string","internalType":"string"}],"stateMutability":"nonpayable"},{"type":"function","name":"addDiscountCode","inputs":[{"name":"code","type":"string","internalType":"string"},{"name":"discountPercentage","type":"uint256","internalType":"uint256"}],"outputs":[],"stateMutability":"nonpayable"},{"type":"function","name":"addTicketType","inputs":[{"name":"name","type":"string","internalType":"string"},{"name":"maxSupply","type":"uint256","internalType":"uint256"},{"name":"price","type":"uint256","internalType":"uint256"},{"name":"earlyBirdPrice","type":"uint256","internalType":"uint256"},{"name":"whitelistPrice","type":"uint256","internalType":"uint256"},{"name":"active","type":"bool","internalType":"bool"}],"outputs":[],"stateMutability":"nonpayable"},{"type":"function","name":"addToWhitelist","inputs":[{"name":"_address","type":"address","internalType":"address"}],"outputs":[],"stateMutability":"nonpayable"},{"type":"function","name":"balanceOf","inputs":[{"name":"account","type":"address","internalType":"address"},{"name":"id","type":"uint256","internalType":"uint256"}],"outputs":[{"name":"","type":"uint256","internalType":"uint256"}],"stateMutability":"view"},{"type":"function","name":"balanceOfBatch","inputs":[{"name":"accounts","type":"address[]","internalType":"address[]"},{"name":"ids","type":"uint256[]","internalType":"uint256[]"}],"outputs":[{"name":"","type":"uint256[]","internalType":"uint256[]"}],"stateMutability":"view"},{"type":"function","name":"buyOferta","inputs":[{"name":"ofertaId","type":"uint256","internalType":"uint256"},{"name":"amount","type":"uint256","internalType":"uint256"}],"outputs":[],"stateMutability":"payable"},{"type":"function","name":"buyOfertaTo","inputs":[{"name":"ofertaId","type":"uint256","internalType":"uint256"},{"name":"amount","type":"uint256","internalType":"uint256"},{"name":"buyer","type":"address","internalType":"address"}],"outputs":[],"stateMutability":"payable"},{"type":"function","name":"createOferta","inputs":[{"name":"amount","type":"uint256","internalType":"uint256"},{"name":"price","type":"uint256","internalType":"uint256"}],"outputs":[],"stateMutability":"nonpayable"},{"type":"function","name":"discountCodes","inputs":[{"name":"","type":"bytes32","internalType":"bytes32"}],"outputs":[{"name":"","type":"uint256","internalType":"uint256"}],"stateMutability":"view"},{"type":"function","name":"earlyBirdActive","inputs":[],"outputs":[{"name":"","type":"bool","internalType":"bool"}],"stateMutability":"view"},{"type":"function","name":"eventCancelled","inputs":[],"outputs":[{"name":"","type":"bool","internalType":"bool"}],"stateMutability":"view"},{"type":"function","name":"getOfertas","inputs":[],"outputs":[{"name":"","type":"tuple[]","internalType":"struct Evento1155.Oferta[]","components":[{"name":"owner","type":"address","internalType":"address"},{"name":"id","type":"uint256","internalType":"uint256"},{"name":"amount","type":"uint256","internalType":"uint256"},{"name":"price","type":"uint256","internalType":"uint256"},{"name":"active","type":"bool","internalType":"bool"}]}],"stateMutability":"view"},{"type":"function","name":"getTicketType","inputs":[{"name":"index","type":"uint256","internalType":"uint256"}],"outputs":[{"name":"name","type":"string","internalType":"string"},{"name":"maxSupply","type":"uint256","internalType":"uint256"},{"name":"currentSupply","type":"uint256","internalType":"uint256"},{"name":"price","type":"uint256","internalType":"uint256"},{"name":"earlyBirdPrice","type":"uint256","internalType":"uint256"},{"name":"whitelistPrice","type":"uint256","internalType":"uint256"},{"name":"active","type":"bool","internalType":"bool"}],"stateMutability":"view"},{"type":"function","name":"getTicketTypes","inputs":[],"outputs":[{"name":"","type":"tuple[]","internalType":"struct Evento1155.TicketType[]","components":[{"name":"name","type":"string","internalType":"string"},{"name":"maxSupply","type":"uint256","internalType":"uint256"},{"name":"currentSupply","type":"uint256","internalType":"uint256"},{"name":"price","type":"uint256","internalType":"uint256"},{"name":"earlyBirdPrice","type":"uint256","internalType":"uint256"},{"name":"whitelistPrice","type":"uint256","internalType":"uint256"},{"name":"active","type":"bool","internalType":"bool"}]}],"stateMutability":"view"},{"type":"function","name":"isApprovedForAll","inputs":[{"name":"account","type":"address","internalType":"address"},{"name":"operator","type":"address","internalType":"address"}],"outputs":[{"name":"","type":"bool","internalType":"bool"}],"stateMutability":"view"},{"type":"function","name":"isWhitelisted","inputs":[{"name":"_address","type":"address","internalType":"address"}],"outputs":[{"name":"","type":"bool","internalType":"bool"}],"stateMutability":"view"},{"type":"function","name":"ofertas","inputs":[{"name":"","type":"uint256","internalType":"uint256"}],"outputs":[{"name":"owner","type":"address","internalType":"address"},{"name":"id","type":"uint256","internalType":"uint256"},{"name":"amount","type":"uint256","internalType":"uint256"},{"name":"price","type":"uint256","internalType":"uint256"},{"name":"active","type":"bool","internalType":"bool"}],"stateMutability":"view"},{"type":"function","name":"owner","inputs":[],"outputs":[{"name":"","type":"address","internalType":"address"}],"stateMutability":"view"},{"type":"function","name":"purchaseTickets","inputs":[{"name":"ticketType","type":"uint256","internalType":"uint256"},{"name":"amount","type":"uint256","internalType":"uint256"},{"name":"discountCode","type":"string","internalType":"string"}],"outputs":[],"stateMutability":"payable"},{"type":"function","name":"registeredUsers","inputs":[{"name":"","type":"address","internalType":"address"}],"outputs":[{"name":"","type":"bool","internalType":"bool"}],"stateMutability":"view"},{"type":"function","name":"removeFromWhitelist","inputs":[{"name":"_address","type":"address","internalType":"address"}],"outputs":[],"stateMutability":"nonpayable"},{"type":"function","name":"renounceOwnership","inputs":[],"outputs":[],"stateMutability":"nonpayable"},{"type":"function","name":"safeBatchTransferFrom","inputs":[{"name":"from","type":"address","internalType":"address"},{"name":"to","type":"address","internalType":"address"},{"name":"ids","type":"uint256[]","internalType":"uint256[]"},{"name":"values","type":"uint256[]","internalType":"uint256[]"},{"name":"data","type":"bytes","internalType":"bytes"}],"outputs":[],"stateMutability":"nonpayable"},{"type":"function","name":"safeTransferFrom","inputs":[{"name":"from","type":"address","internalType":"address"},{"name":"to","type":"address","internalType":"address"},{"name":"id","type":"uint256","internalType":"uint256"},{"name":"value","type":"uint256","internalType":"uint256"},{"name":"data","type":"bytes","internalType":"bytes"}],"outputs":[],"stateMutability":"nonpayable"},{"type":"function","name":"saleActive","inputs":[],"outputs":[{"name":"","type":"bool","internalType":"bool"}],"stateMutability":"view"},{"type":"function","name":"setApprovalForAll","inputs":[{"name":"operator","type":"address","internalType":"address"},{"name":"approved","type":"bool","internalType":"bool"}],"outputs":[],"stateMutability":"nonpayable"},{"type":"function","name":"setEarlyBirdActive","inputs":[{"name":"_active","type":"bool","internalType":"bool"}],"outputs":[],"stateMutability":"nonpayable"},{"type":"function","name":"setEventCancelled","inputs":[{"name":"_cancelled","type":"bool","internalType":"bool"}],"outputs":[],"stateMutability":"nonpayable"},{"type":"function","name":"setSaleActive","inputs":[{"name":"_active","type":"bool","internalType":"bool"}],"outputs":[],"stateMutability":"nonpayable"},{"type":"function","name":"setTicketPrices","inputs":[{"name":"ticketType","type":"uint256","internalType":"uint256"},{"name":"newPrice","type":"uint256","internalType":"uint256"},{"name":"newEarlyBirdPrice","type":"uint256","internalType":"uint256"},{"name":"newWhitelistPrice","type":"uint256","internalType":"uint256"}],"outputs":[],"stateMutability":"nonpayable"},{"type":"function","name":"setWhitelistActive","inputs":[{"name":"_active","type":"bool","internalType":"bool"}],"outputs":[],"stateMutability":"nonpayable"},{"type":"function","name":"supportsInterface","inputs":[{"name":"interfaceId","type":"bytes4","internalType":"bytes4"}],"outputs":[{"name":"","type":"bool","internalType":"bool"}],"stateMutability":"view"},{"type":"function","name":"ticketTypesArray","inputs":[{"name":"","type":"uint256","internalType":"uint256"}],"outputs":[{"name":"name","type":"string","internalType":"string"},{"name":"maxSupply","type":"uint256","internalType":"uint256"},{"name":"currentSupply","type":"uint256","internalType":"uint256"},{"name":"price","type":"uint256","internalType":"uint256"},{"name":"earlyBirdPrice","type":"uint256","internalType":"uint256"},{"name":"whitelistPrice","type":"uint256","internalType":"uint256"},{"name":"active","type":"bool","internalType":"bool"}],"stateMutability":"view"},{"type":"function","name":"transferOwnership","inputs":[{"name":"newOwner","type":"address","internalType":"address"}],"outputs":[],"stateMutability":"nonpayable"},{"type":"function","name":"updateTicketType","inputs":[{"name":"index","type":"uint256","internalType":"uint256"},{"name":"name","type":"string","internalType":"string"},{"name":"maxSupply","type":"uint256","internalType":"uint256"},{"name":"price","type":"uint256","internalType":"uint256"},{"name":"earlyBirdPrice","type":"uint256","internalType":"uint256"},{"name":"whitelistPrice","type":"uint256","internalType":"uint256"},{"name":"active","type":"bool","internalType":"bool"}],"outputs":[],"stateMutability":"nonpayable"},{"type":"function","name":"uri","inputs":[{"name":"","type":"uint256","internalType":"uint256"}],"outputs":[{"name":"","type":"string","internalType":"string"}],"stateMutability":"view"},{"type":"function","name":"whitelist","inputs":[{"name":"","type":"address","internalType":"address"}],"outputs":[{"name":"","type":"bool","internalType":"bool"}],"stateMutability":"view"},{"type":"function","name":"whitelistActive","inputs":[],"outputs":[{"name":"","type":"bool","internalType":"bool"}],"stateMutability":"view"},{"type":"function","name":"withdraw","inputs":[],"outputs":[],"stateMutability":"nonpayable"},{"type":"function","name":"writeAllTicketTypes","inputs":[{"name":"_ticketTypes","type":"tuple[]","internalType":"struct Evento1155.TicketType[]","components":[{"name":"name","type":"string","internalType":"string"},{"name":"maxSupply","type":"uint256","internalType":"uint256"},{"name":"currentSupply","type":"uint256","internalType":"uint256"},{"name":"price","type":"uint256","internalType":"uint256"},{"name":"earlyBirdPrice","type":"uint256","internalType":"uint256"},{"name":"whitelistPrice","type":"uint256","internalType":"uint256"},{"name":"active","type":"bool","internalType":"bool"}]}],"outputs":[],"stateMutability":"nonpayable"},{"type":"event","name":"ApprovalForAll","inputs":[{"name":"account","type":"address","indexed":true,"internalType":"address"},{"name":"operator","type":"address","indexed":true,"internalType":"address"},{"name":"approved","type":"bool","indexed":false,"internalType":"bool"}],"anonymous":false},{"type":"event","name":"DiscountCodeAdded","inputs":[{"name":"codeHash","type":"bytes32","indexed":false,"internalType":"bytes32"},{"name":"discountPercentage","type":"uint256","indexed":false,"internalType":"uint256"}],"anonymous":false},{"type":"event","name":"EarlyBirdWindowUpdated","inputs":[{"name":"active","type":"bool","indexed":false,"internalType":"bool"}],"anonymous":false},{"type":"event","name":"OwnershipTransferred","inputs":[{"name":"previousOwner","type":"address","indexed":true,"internalType":"address"},{"name":"newOwner","type":"address","indexed":true,"internalType":"address"}],"anonymous":false},{"type":"event","name":"SaleWindowUpdated","inputs":[{"name":"active","type":"bool","indexed":false,"internalType":"bool"}],"anonymous":false},{"type":"event","name":"TicketPriceUpdated","inputs":[{"name":"ticketType","type":"uint256","indexed":true,"internalType":"uint256"},{"name":"newPrice","type":"uint256","indexed":false,"internalType":"uint256"},{"name":"newEarlyBirdPrice","type":"uint256","indexed":false,"internalType":"uint256"},{"name":"newWhitelistPrice","type":"uint256","indexed":false,"internalType":"uint256"}],"anonymous":false},{"type":"event","name":"TicketPurchased","inputs":[{"name":"buyer","type":"address","indexed":true,"internalType":"address"},{"name":"ticketType","type":"uint256","indexed":true,"internalType":"uint256"},{"name":"amount","type":"uint256","indexed":false,"internalType":"uint256"},{"name":"price","type":"uint256","indexed":false,"internalType":"uint256"}],"anonymous":false},{"type":"event","name":"TransferBatch","inputs":[{"name":"operator","type":"address","indexed":true,"internalType":"address"},{"name":"from","type":"address","indexed":true,"internalType":"address"},{"name":"to","type":"address","indexed":true,"internalType":"address"},{"name":"ids","type":"uint256[]","indexed":false,"internalType":"uint256[]"},{"name":"values","type":"uint256[]","indexed":false,"internalType":"uint256[]"}],"anonymous":false},{"type":"event","name":"TransferSingle","inputs":[{"name":"operator","type":"address","indexed":true,"internalType":"address"},{"name":"from","type":"address","indexed":true,"internalType":"address"},{"name":"to","type":"address","indexed":true,"internalType":"address"},{"name":"id","type":"uint256","indexed":false,"internalType":"uint256"},{"name":"value","type":"uint256","indexed":false,"internalType":"uint256"}],"anonymous":false},{"type":"event","name":"URI","inputs":[{"name":"value","type":"string","indexed":false,"internalType":"string"},{"name":"id","type":"uint256","indexed":true,"internalType":"uint256"}],"anonymous":false},{"type":"event","name":"WhitelistWindowUpdated","inputs":[{"name":"active","type":"bool","indexed":false,"internalType":"bool"}],"anonymous":false},{"type":"error","name":"ERC1155InsufficientBalance","inputs":[{"name":"sender","type":"address","internalType":"address"},{"name":"balance","type":"uint256","internalType":"uint256"},{"name":"needed","type":"uint256","internalType":"uint256"},{"name":"tokenId","type":"uint256","internalType":"uint256"}]},{"type":"error","name":"ERC1155InvalidApprover","inputs":[{"name":"approver","type":"address","internalType":"address"}]},{"type":"error","name":"ERC1155InvalidArrayLength","inputs":[{"name":"idsLength","type":"uint256","internalType":"uint256"},{"name":"valuesLength","type":"uint256","internalType":"uint256"}]},{"type":"error","name":"ERC1155InvalidOperator","inputs":[{"name":"operator","type":"address","internalType":"address"}]},{"type":"error","name":"ERC1155InvalidReceiver","inputs":[{"name":"receiver","type":"address","internalType":"address"}]},{"type":"error","name":"ERC1155InvalidSender","inputs":[{"name":"sender","type":"address","internalType":"address"}]},{"type":"error","name":"ERC1155MissingApprovalForAll","inputs":[{"name":"operator","type":"address","internalType":"address"},{"name":"owner","type":"address","internalType":"address"}]},{"type":"error","name":"OwnableInvalidOwner","inputs":[{"name":"owner","type":"address","internalType":"address"}]},{"type":"error","name":"OwnableUnauthorizedAccount","inputs":[{"name":"account","type":"address","internalType":"address"}]},{"type":"error","name":"ReentrancyGuardReentrantCall","inputs":[]}],"bytecode":{"object":"0x60806040523480156200001157600080fd5b506040516200402438038062004024833981016040819052620000349162000110565b3381620000418162000096565b506001600160a01b0381166200007157604051631e4fbdf760e01b81526000600482015260240160405180910390fd5b6200007c81620000a8565b505060016004556006805463ffffffff1916905562000340565b6002620000a4828262000274565b5050565b600380546001600160a01b038381166001600160a01b0319831681179093556040519116919082907f8be0079c531659141344cd1fd0a4f28419497f9722a3daafe3b4186f6b6457e090600090a35050565b634e487b7160e01b600052604160045260246000fd5b600060208083850312156200012457600080fd5b82516001600160401b03808211156200013c57600080fd5b818501915085601f8301126200015157600080fd5b815181811115620001665762000166620000fa565b604051601f8201601f19908116603f01168101908382118183101715620001915762000191620000fa565b816040528281528886848701011115620001aa57600080fd5b600093505b82841015620001ce5784840186015181850187015292850192620001af565b600086848301015280965050505050505092915050565b600181811c90821680620001fa57607f821691505b6020821081036200021b57634e487b7160e01b600052602260045260246000fd5b50919050565b601f8211156200026f57600081815260208120601f850160051c810160208610156200024a5750805b601f850160051c820191505b818110156200026b5782815560010162000256565b5050505b505050565b81516001600160401b03811115620002905762000290620000fa565b620002a881620002a18454620001e5565b8462000221565b602080601f831160018114620002e05760008415620002c75750858301515b600019600386901b1c1916600185901b1785556200026b565b600085815260208120601f198616915b828110156200031157888601518255948401946001909101908401620002f0565b5085821015620003305787850151600019600388901b60f8161c191681555b5050505050600190811b01905550565b613cd480620003506000396000f3fe60806040526004361061023a5760003560e01c806386532af81161012e578063c0c116a3116100ab578063e1a494d11161006f578063e1a494d114610733578063e43252d714610754578063e985e9c514610774578063f242432a14610794578063f2fde38b146107b457600080fd5b8063c0c116a3146106a0578063c3b754dc146106cd578063cb71047c146106ed578063ce4f473d1461070d578063d4b77c271461072057600080fd5b8063994983ad116100f2578063994983ad146105f05780639b19251a14610610578063a22cb46514610640578063be550e4714610660578063be60aea51461068057600080fd5b806386532af814610546578063878b60c9146105685780638ab1d681146105885780638da5cb5b146105a85780639610a8ba146105d057600080fd5b80633ccfd60b116101bc57806356afff7c1161018057806356afff7c1461048357806368428a1b146104d7578063715018a6146104f15780638186c0c314610506578063841718a61461052657600080fd5b80633ccfd60b146103ec5780634303352e146104015780634c80291c146104215780634e1273f414610434578063565f76e91461046157600080fd5b80630e89341c116102035780630e89341c14610314578063163e0f46146103415780632521d948146103745780632eb2c2d6146103935780633af32abf146103b357600080fd5b8062fdd58e1461023f57806301ffc9a71461027257806302ce5813146102a257806303e0220e146102c25780630e50cee5146102e4575b600080fd5b34801561024b57600080fd5b5061025f61025a366004612eb3565b6107d4565b6040519081526020015b60405180910390f35b34801561027e57600080fd5b5061029261028d366004612ef3565b6107fc565b6040519015158152602001610269565b3480156102ae57600080fd5b506006546102929062010000900460ff1681565b3480156102ce57600080fd5b506102e26102dd366004612f17565b61084c565b005b3480156102f057600080fd5b506102926102ff366004612f39565b60076020526000908152604090205460ff1681565b34801561032057600080fd5b5061033461032f366004612f54565b6109a8565b6040516102699190612fbd565b34801561034d57600080fd5b5061036161035c366004612f54565b610a3c565b6040516102699796959493929190612fd0565b34801561038057600080fd5b5060065461029290610100900460ff1681565b34801561039f57600080fd5b506102e26103ae366004613181565b610b93565b3480156103bf57600080fd5b506102926103ce366004612f39565b6001600160a01b031660009081526009602052604090205460ff1690565b3480156103f857600080fd5b506102e2610bfa565b34801561040d57600080fd5b506102e261041c36600461323a565b610cd3565b6102e261042f366004612f17565b610d59565b34801561044057600080fd5b5061045461044f366004613255565b611166565b604051610269919061334f565b34801561046d57600080fd5b5061047661123a565b6040516102699190613362565b34801561048f57600080fd5b506104a361049e366004612f54565b611372565b604080516001600160a01b03909616865260208601949094529284019190915260608301521515608082015260a001610269565b3480156104e357600080fd5b506006546102929060ff1681565b3480156104fd57600080fd5b506102e26113c0565b34801561051257600080fd5b50610361610521366004612f54565b6113d4565b34801561053257600080fd5b506102e261054136600461323a565b6114b4565b34801561055257600080fd5b5061055b611527565b604051610269919061340d565b34801561057457600080fd5b506102e2610583366004613486565b6115b7565b34801561059457600080fd5b506102e26105a3366004612f39565b611724565b3480156105b457600080fd5b506003546040516001600160a01b039091168152602001610269565b3480156105dc57600080fd5b506102e26105eb3660046134b8565b611777565b3480156105fc57600080fd5b506102e261060b36600461352a565b61187e565b34801561061c57600080fd5b5061029261062b366004612f39565b60096020526000908152604090205460ff1681565b34801561064c57600080fd5b506102e261065b3660046135a1565b611985565b34801561066c57600080fd5b506102e261067b36600461323a565b611994565b34801561068c57600080fd5b506102e261069b3660046135d4565b611a8d565b3480156106ac57600080fd5b5061025f6106bb366004612f54565b600a6020526000908152604090205481565b3480156106d957600080fd5b506102e26106e836600461323a565b611b27565b3480156106f957600080fd5b506102e2610708366004613651565b611ba4565b6102e261071b36600461377e565b611c9b565b6102e261072e3660046137cd565b6120f0565b34801561073f57600080fd5b50600654610292906301000000900460ff1681565b34801561076057600080fd5b506102e261076f366004612f39565b612510565b34801561078057600080fd5b5061029261078f366004613802565b612566565b3480156107a057600080fd5b506102e26107af36600461382c565b612594565b3480156107c057600080fd5b506102e26107cf366004612f39565b6125f3565b6000818152602081815260408083206001600160a01b03861684529091529020545b92915050565b60006001600160e01b03198216636cdb3d1360e11b148061082d57506001600160e01b031982166303a24d0760e21b145b806107f657506301ffc9a760e01b6001600160e01b03198316146107f6565b6006546301000000900460ff161561087f5760405162461bcd60e51b815260040161087690613890565b60405180910390fd5b6040805160a081018252338152600880546020830181815293830195865260608301948552600160808401818152908201835560009290925291517ff3f7a9fe364faab93b216da50a3214154f22a0a2b415b23a84c8169e8b636ee3600590930292830180546001600160a01b0319166001600160a01b0390921691909117905591517ff3f7a9fe364faab93b216da50a3214154f22a0a2b415b23a84c8169e8b636ee482015592517ff3f7a9fe364faab93b216da50a3214154f22a0a2b415b23a84c8169e8b636ee584015590517ff3f7a9fe364faab93b216da50a3214154f22a0a2b415b23a84c8169e8b636ee6830155517ff3f7a9fe364faab93b216da50a3214154f22a0a2b415b23a84c8169e8b636ee7909101805460ff1916911515919091179055565b6060600280546109b7906138bc565b80601f01602080910402602001604051908101604052809291908181526020018280546109e3906138bc565b8015610a305780601f10610a0557610100808354040283529160200191610a30565b820191906000526020600020905b815481529060010190602001808311610a1357829003601f168201915b50505050509050919050565b6060600080600080600080600060058981548110610a5c57610a5c6138f6565b90600052602060002090600702016040518060e0016040529081600082018054610a85906138bc565b80601f0160208091040260200160405190810160405280929190818152602001828054610ab1906138bc565b8015610afe5780601f10610ad357610100808354040283529160200191610afe565b820191906000526020600020905b815481529060010190602001808311610ae157829003601f168201915b5050505050815260200160018201548152602001600282015481526020016003820154815260200160048201548152602001600582015481526020016006820160009054906101000a900460ff1615151515815250509050806000015181602001518260400151836060015184608001518560a001518660c00151975097509750975097509750975050919395979092949650565b336001600160a01b0386168114801590610bb45750610bb28682612566565b155b15610be55760405163711bec9160e11b81526001600160a01b03808316600483015287166024820152604401610876565b610bf2868686868661262e565b505050505050565b610c0261268e565b6006546301000000900460ff1615610c2c5760405162461bcd60e51b815260040161087690613890565b6006546301000000900460ff1615610c975760405162461bcd60e51b815260206004820152602860248201527f43616e6e6f74207769746864726177206166746572206576656e742063616e6360448201526732b63630ba34b7b760c11b6064820152608401610876565b6003546040516001600160a01b03909116904780156108fc02916000818181858888f19350505050158015610cd0573d6000803e3d6000fd5b50565b610cdb61268e565b6006546301000000900460ff1615610d055760405162461bcd60e51b815260040161087690613890565b600680548215156101000261ff00199091161790556040517ff3b209a929867edf30ec26143da4c834f222abc77e70ec979fc3544a0016093690610d4e90831515815260200190565b60405180910390a150565b6006546301000000900460ff1615610d835760405162461bcd60e51b815260040161087690613890565b600060088381548110610d9857610d986138f6565b60009182526020918290206040805160a081018252600590930290910180546001600160a01b031683526001810154938301939093526002830154908201526003820154606082015260049091015460ff16151560808201819052909150610e355760405162461bcd60e51b815260206004820152601060248201526f4f6665727461206e6f2061637469766160801b6044820152606401610876565b8181604001511015610e595760405162461bcd60e51b81526004016108769061390c565b34828260600151610e6a9190613968565b1115610eb25760405162461bcd60e51b8152602060048201526017602482015276456c207061676f20657320696e737566696369656e746560481b6044820152606401610876565b60003411610f025760405162461bcd60e51b815260206004820152601f60248201527f456c207061676f206465626520736572206d61796f7220717565206365726f006044820152606401610876565b8051336001600160a01b0390911603610f2d5760405162461bcd60e51b81526004016108769061397f565b6000816040015111610f815760405162461bcd60e51b815260206004820152601a60248201527f4e6f20686179207469636b65747320646973706f6e69626c65730000000000006044820152606401610876565b6000816060015111610fa55760405162461bcd60e51b8152600401610876906139d0565b8181604001818151610fb79190613a1e565b905250805160208083015160408051928301905260008252610fde929133919086906126bb565b8060088481548110610ff257610ff26138f6565b6000918252602080832084516005939093020180546001600160a01b0319166001600160a01b039384161781559084015160018201556040840151600282015560608085015160038301556080909401516004909101805460ff19169115159190911790558351928401519192169061106c908590613968565b604051600081818185875af1925050503d80600081146110a8576040519150601f19603f3d011682016040523d82523d6000602084013e6110ad565b606091505b50509050806110f85760405162461bcd60e51b815260206004820152601760248201527614185e5b595b9d081d1c985b9cd9995c8819985a5b1959604a1b6044820152606401610876565b8282606001516111089190613968565b34111561116057336001600160a01b03166108fc84846060015161112c9190613968565b6111369034613a1e565b6040518115909202916000818181858888f1935050505015801561115e573d6000803e3d6000fd5b505b50505050565b606081518351146111975781518351604051635b05999160e01b815260048101929092526024820152604401610876565b600083516001600160401b038111156111b2576111b2613016565b6040519080825280602002602001820160405280156111db578160200160208202803683370190505b50905060005b845181101561123257602080820286010151611205906020808402870101516107d4565b828281518110611217576112176138f6565b602090810291909101015261122b81613a31565b90506111e1565b509392505050565b60606005805480602002602001604051908101604052809291908181526020016000905b8282101561136957838290600052602060002090600702016040518060e0016040529081600082018054611291906138bc565b80601f01602080910402602001604051908101604052809291908181526020018280546112bd906138bc565b801561130a5780601f106112df5761010080835404028352916020019161130a565b820191906000526020600020905b8154815290600101906020018083116112ed57829003601f168201915b5050509183525050600182810154602080840191909152600284015460408401526003840154606084015260048401546080840152600584015460a084015260069093015460ff16151560c0909201919091529183529201910161125e565b50505050905090565b6008818154811061138257600080fd5b6000918252602090912060059091020180546001820154600283015460038401546004909401546001600160a01b0390931694509092909160ff1685565b6113c861268e565b6113d26000612740565b565b600581815481106113e457600080fd5b9060005260206000209060070201600091509050806000018054611407906138bc565b80601f0160208091040260200160405190810160405280929190818152602001828054611433906138bc565b80156114805780601f1061145557610100808354040283529160200191611480565b820191906000526020600020905b81548152906001019060200180831161146357829003601f168201915b5050506001840154600285015460038601546004870154600588015460069098015496979396929550909350919060ff1687565b6114bc61268e565b6006546301000000900460ff16156114e65760405162461bcd60e51b815260040161087690613890565b6006805460ff19168215159081179091556040519081527fbd079fd01a7c0bfd9988080a099c26be9fa3bfc91157e1e2e7fec59dbfa0a68990602001610d4e565b60606008805480602002602001604051908101604052809291908181526020016000905b828210156113695760008481526020908190206040805160a0810182526005860290920180546001600160a01b0316835260018082015484860152600282015492840192909252600381015460608401526004015460ff1615156080830152908352909201910161154b565b6115bf61268e565b6006546301000000900460ff16156115e95760405162461bcd60e51b815260040161087690613890565b8282111561165f5760405162461bcd60e51b815260206004820152603c60248201527f4561726c792062697264207072696365206d757374206265206c65737320746860448201527f616e206f7220657175616c20746f20726567756c6172207072696365000000006064820152608401610876565b8260058581548110611673576116736138f6565b906000526020600020906007020160030181905550816005858154811061169c5761169c6138f6565b90600052602060002090600702016004018190555080600585815481106116c5576116c56138f6565b60009182526020918290206005600790920201019190915560408051858152918201849052810182905284907f2600da271ce5c1d7ade0bce77782af4cdaff91f5159d5216d1850b08ff3eb7f89060600160405180910390a250505050565b61172c61268e565b6006546301000000900460ff16156117565760405162461bcd60e51b815260040161087690613890565b6001600160a01b03166000908152600960205260409020805460ff19169055565b61177f61268e565b6006546301000000900460ff16156117a95760405162461bcd60e51b815260040161087690613890565b6040805160e081018252878152602081018790526000918101829052606081018690526080810185905260a0810184905282151560c082015260058054600181018255925280519091829160079091027f036b6384b5eca791c62761152d0c79bb0604c104a5fb6f4eb0703f3154bb3db0019081906118289082613a90565b506020820151600182015560408201516002820155606082015160038201556080820151600482015560a0820151600582015560c0909101516006909101805460ff191691151591909117905550505050505050565b61188661268e565b6006546301000000900460ff16156118b05760405162461bcd60e51b815260040161087690613890565b6000811180156118c1575060648111155b61190d5760405162461bcd60e51b815260206004820152601b60248201527f496e76616c696420646973636f756e742070657263656e7461676500000000006044820152606401610876565b60008383604051602001611922929190613b4f565b60408051808303601f1901815282825280516020918201206000818152600a835283902086905580845290830185905292507f6f85234a5bf317d7ce19d628a69e5d1db209d98f4c89ce0b8c6f0332df82bed6910160405180910390a150505050565b611990338383612792565b5050565b61199c61268e565b6006546301000000900460ff16156119c65760405162461bcd60e51b815260040161087690613890565b600680548215801563010000000263ff0000001990921691909117909155610cd0576006805462ffffff19169055604051600081527fbd079fd01a7c0bfd9988080a099c26be9fa3bfc91157e1e2e7fec59dbfa0a6899060200160405180910390a1604051600081527ff3b209a929867edf30ec26143da4c834f222abc77e70ec979fc3544a001609369060200160405180910390a1604051600081527fda4364ac785216e227ace731a91b212834f7c934f0ca26880a60af63cb79924a90602001610d4e565b611a9561268e565b6006546301000000900460ff1615611abf5760405162461bcd60e51b815260040161087690613890565b6040518060e001604052808781526020018681526020016000815260200185815260200184815260200183815260200182151581525060058881548110611b0857611b086138f6565b6000918252602090912082516007909202019081906118289082613a90565b611b2f61268e565b6006546301000000900460ff1615611b595760405162461bcd60e51b815260040161087690613890565b60068054821515620100000262ff0000199091161790556040517fda4364ac785216e227ace731a91b212834f7c934f0ca26880a60af63cb79924a90610d4e90831515815260200190565b611bac61268e565b6006546301000000900460ff1615611bd65760405162461bcd60e51b815260040161087690613890565b60055415611bea57611bea60056000612de0565b60005b8151811015611990576005828281518110611c0a57611c0a6138f6565b60209081029190910181015182546001810184556000938452919092208251600790920201908190611c3c9082613a90565b506020820151600182015560408201516002820155606082015160038201556080820151600482015560a0820151600582015560c0909101516006909101805460ff191691151591909117905580611c9381613a31565b915050611bed565b60065460ff16611ce45760405162461bcd60e51b815260206004820152601460248201527353616c657320617265206e6f742061637469766560601b6044820152606401610876565b611cec612828565b60058381548110611cff57611cff6138f6565b600091825260209091206006600790920201015460ff16611d5b5760405162461bcd60e51b81526020600482015260166024820152755469636b65742074797065206e6f742061637469766560501b6044820152606401610876565b60008211611dab5760405162461bcd60e51b815260206004820181905260248201527f416d6f756e74206d7573742062652067726561746572207468616e207a65726f6044820152606401610876565b60058381548110611dbe57611dbe6138f6565b9060005260206000209060070201600101548260058581548110611de457611de46138f6565b906000526020600020906007020160020154611e009190613b5f565b1115611e4e5760405162461bcd60e51b815260206004820152601c60248201527f4e6f7420656e6f756768207469636b65747320617661696c61626c65000000006044820152606401610876565b600654600090610100900460ff1615611e8d5760058481548110611e7457611e746138f6565b9060005260206000209060070201600401549050611eb5565b60058481548110611ea057611ea06138f6565b90600052602060002090600702016003015490505b8151819015611f6357600083604051602001611ed19190613b72565b60408051601f1981840301815291815281516020928301206000818152600a90935291205490915080611f3e5760405162461bcd60e51b8152602060048201526015602482015274496e76616c696420646973636f756e7420636f646560581b6044820152606401610876565b6064611f4a8282613a1e565b611f549086613968565b611f5e9190613b8e565b925050505b60065462010000900460ff168015611f8b57503360009081526009602052604090205460ff16155b15611fb85760058581548110611fa357611fa36138f6565b90600052602060002090600702016005015490505b6000611fc48583613968565b90508034101561200d5760405162461bcd60e51b8152602060048201526014602482015273125b9cdd59999a58da595b9d081c185e5b595b9d60621b6044820152606401610876565b61202833878760405180602001604052806000815250612852565b846005878154811061203c5761203c6138f6565b9060005260206000209060070201600201600082825461205c9190613b5f565b9091555050348110156120a157336108fc6120778334613a1e565b6040518115909202916000818181858888f1935050505015801561209f573d6000803e3d6000fd5b505b6040805186815260208101849052879133917f96541f70da731142b18e96f1def4d2a7733deb7d784723106d52c1d906d4c67a910160405180910390a35050506120eb6001600455565b505050565b6006546301000000900460ff161561211a5760405162461bcd60e51b815260040161087690613890565b60006008848154811061212f5761212f6138f6565b60009182526020918290206040805160a081018252600590930290910180546001600160a01b031683526001810154938301939093526002830154908201526003820154606082015260049091015460ff161515608082018190529091506121cc5760405162461bcd60e51b815260206004820152601060248201526f4f6665727461206e6f2061637469766160801b6044820152606401610876565b82816040015110156121f05760405162461bcd60e51b81526004016108769061390c565b348382606001516122019190613968565b11156122495760405162461bcd60e51b8152602060048201526017602482015276456c207061676f20657320696e737566696369656e746560481b6044820152606401610876565b6001600160a01b03821661229f5760405162461bcd60e51b815260206004820152601e60248201527f456c20636f6d707261646f72206e6f20707565646520736572206365726f00006044820152606401610876565b80600001516001600160a01b0316826001600160a01b0316036122d45760405162461bcd60e51b81526004016108769061397f565b60008160400151116123285760405162461bcd60e51b815260206004820152601a60248201527f4e6f20686179207469636b65747320646973706f6e69626c65730000000000006044820152606401610876565b600081606001511161234c5760405162461bcd60e51b8152600401610876906139d0565b612370816000015183836020015186604051806020016040528060008152506126bb565b82816040018181516123829190613a1e565b905250600880548291908690811061239c5761239c6138f6565b6000918252602080832084516005939093020180546001600160a01b0319166001600160a01b0390931692909217825583015160018201556040830151600282015560608084015160038301556080909301516004909101805460ff191691151591909117905590820151612412908590613968565b9050600082600001516001600160a01b03168584606001516124349190613968565b604051600081818185875af1925050503d8060008114612470576040519150601f19603f3d011682016040523d82523d6000602084013e612475565b606091505b50509050806124c05760405162461bcd60e51b815260206004820152601760248201527614185e5b595b9d081d1c985b9cd9995c8819985a5b1959604a1b6044820152606401610876565b81341115610bf2576001600160a01b0384166108fc6124df8434613a1e565b6040518115909202916000818181858888f19350505050158015612507573d6000803e3d6000fd5b50505050505050565b61251861268e565b6006546301000000900460ff16156125425760405162461bcd60e51b815260040161087690613890565b6001600160a01b03166000908152600960205260409020805460ff19166001179055565b6001600160a01b03918216600090815260016020908152604080832093909416825291909152205460ff1690565b336001600160a01b03861681148015906125b557506125b38682612566565b155b156125e65760405163711bec9160e11b81526001600160a01b03808316600483015287166024820152604401610876565b610bf286868686866126bb565b6125fb61268e565b6001600160a01b03811661262557604051631e4fbdf760e01b815260006004820152602401610876565b610cd081612740565b6001600160a01b03841661265857604051632bfa23e760e11b815260006004820152602401610876565b6001600160a01b03851661268157604051626a0d4560e21b815260006004820152602401610876565b61115e85858585856128ab565b6003546001600160a01b031633146113d25760405163118cdaa760e01b8152336004820152602401610876565b6001600160a01b0384166126e557604051632bfa23e760e11b815260006004820152602401610876565b6001600160a01b03851661270e57604051626a0d4560e21b815260006004820152602401610876565b6040805160018082526020820186905281830190815260608201859052608082019092529061250787878484876128ab565b600380546001600160a01b038381166001600160a01b0319831681179093556040519116919082907f8be0079c531659141344cd1fd0a4f28419497f9722a3daafe3b4186f6b6457e090600090a35050565b6001600160a01b0382166127bb5760405162ced3e160e81b815260006004820152602401610876565b6001600160a01b03838116600081815260016020908152604080832094871680845294825291829020805460ff191686151590811790915591519182527f17307eab39ab6107e8899845ad3d59bd9653f200f220920489ca2b5937696c31910160405180910390a3505050565b60026004540361284b57604051633ee5aeb560e01b815260040160405180910390fd5b6002600455565b6001600160a01b03841661287c57604051632bfa23e760e11b815260006004820152602401610876565b60408051600180825260208201869052818301908152606082018590526080820190925290610bf26000878484875b6128b7858585856128fe565b6001600160a01b0384161561115e57825133906001036128f057602084810151908401516128e98389898585896129b6565b5050610bf2565b610bf2818787878787612ada565b6006546301000000900460ff16156129285760405162461bcd60e51b815260040161087690613890565b61293484848484612bc3565b6006546301000000900460ff16801561295557506001600160a01b03831615155b156111605760405162461bcd60e51b815260206004820152602b60248201527f5472616e73666572732064697361626c6564206166746572206576656e74206360448201526a30b731b2b63630ba34b7b760a91b6064820152608401610876565b6001600160a01b0384163b15610bf25760405163f23a6e6160e01b81526001600160a01b0385169063f23a6e61906129fa9089908990889088908890600401613bb0565b6020604051808303816000875af1925050508015612a35575060408051601f3d908101601f19168201909252612a3291810190613bf5565b60015b612a9e573d808015612a63576040519150601f19603f3d011682016040523d82523d6000602084013e612a68565b606091505b508051600003612a9657604051632bfa23e760e11b81526001600160a01b0386166004820152602401610876565b805181602001fd5b6001600160e01b0319811663f23a6e6160e01b1461250757604051632bfa23e760e11b81526001600160a01b0386166004820152602401610876565b6001600160a01b0384163b15610bf25760405163bc197c8160e01b81526001600160a01b0385169063bc197c8190612b1e9089908990889088908890600401613c12565b6020604051808303816000875af1925050508015612b59575060408051601f3d908101601f19168201909252612b5691810190613bf5565b60015b612b87573d808015612a63576040519150601f19603f3d011682016040523d82523d6000602084013e612a68565b6001600160e01b0319811663bc197c8160e01b1461250757604051632bfa23e760e11b81526001600160a01b0386166004820152602401610876565b8051825114612bf25781518151604051635b05999160e01b815260048101929092526024820152604401610876565b3360005b8351811015612d01576020818102858101820151908501909101516001600160a01b03881615612ca9576000828152602081815260408083206001600160a01b038c16845290915290205481811015612c82576040516303dee4c560e01b81526001600160a01b038a166004820152602481018290526044810183905260648101849052608401610876565b6000838152602081815260408083206001600160a01b038d16845290915290209082900390555b6001600160a01b03871615612cee576000828152602081815260408083206001600160a01b038b16845290915281208054839290612ce8908490613b5f565b90915550505b505080612cfa90613a31565b9050612bf6565b508251600103612d825760208301516000906020840151909150856001600160a01b0316876001600160a01b0316846001600160a01b03167fc3d58168c5ae7397731d063d5bbf3d657854427343f4c083240f7aacaa2d0f628585604051612d73929190918252602082015260400190565b60405180910390a4505061115e565b836001600160a01b0316856001600160a01b0316826001600160a01b03167f4a39dc06d4c0dbc64b70af90fd698a233a518aa5d07e595d983b8c0526c8f7fb8686604051612dd1929190613c70565b60405180910390a45050505050565b5080546000825560070290600052602060002090810190610cd091905b80821115612e49576000612e118282612e4d565b50600060018201819055600282018190556003820181905560048201819055600582015560068101805460ff19169055600701612dfd565b5090565b508054612e59906138bc565b6000825580601f10612e69575050565b601f016020900490600052602060002090810190610cd091905b80821115612e495760008155600101612e83565b80356001600160a01b0381168114612eae57600080fd5b919050565b60008060408385031215612ec657600080fd5b612ecf83612e97565b946020939093013593505050565b6001600160e01b031981168114610cd057600080fd5b600060208284031215612f0557600080fd5b8135612f1081612edd565b9392505050565b60008060408385031215612f2a57600080fd5b50508035926020909101359150565b600060208284031215612f4b57600080fd5b612f1082612e97565b600060208284031215612f6657600080fd5b5035919050565b60005b83811015612f88578181015183820152602001612f70565b50506000910152565b60008151808452612fa9816020860160208601612f6d565b601f01601f19169290920160200192915050565b602081526000612f106020830184612f91565b60e081526000612fe360e083018a612f91565b60208301989098525060408101959095526060850193909352608084019190915260a0830152151560c090910152919050565b634e487b7160e01b600052604160045260246000fd5b60405160e081016001600160401b038111828210171561304e5761304e613016565b60405290565b604051601f8201601f191681016001600160401b038111828210171561307c5761307c613016565b604052919050565b60006001600160401b0382111561309d5761309d613016565b5060051b60200190565b600082601f8301126130b857600080fd5b813560206130cd6130c883613084565b613054565b82815260059290921b840181019181810190868411156130ec57600080fd5b8286015b8481101561310757803583529183019183016130f0565b509695505050505050565b600082601f83011261312357600080fd5b81356001600160401b0381111561313c5761313c613016565b61314f601f8201601f1916602001613054565b81815284602083860101111561316457600080fd5b816020850160208301376000918101602001919091529392505050565b600080600080600060a0868803121561319957600080fd5b6131a286612e97565b94506131b060208701612e97565b935060408601356001600160401b03808211156131cc57600080fd5b6131d889838a016130a7565b945060608801359150808211156131ee57600080fd5b6131fa89838a016130a7565b9350608088013591508082111561321057600080fd5b5061321d88828901613112565b9150509295509295909350565b80358015158114612eae57600080fd5b60006020828403121561324c57600080fd5b612f108261322a565b6000806040838503121561326857600080fd5b82356001600160401b038082111561327f57600080fd5b818501915085601f83011261329357600080fd5b813560206132a36130c883613084565b82815260059290921b840181019181810190898411156132c257600080fd5b948201945b838610156132e7576132d886612e97565b825294820194908201906132c7565b965050860135925050808211156132fd57600080fd5b5061330a858286016130a7565b9150509250929050565b600081518084526020808501945080840160005b8381101561334457815187529582019590820190600101613328565b509495945050505050565b602081526000612f106020830184613314565b60006020808301818452808551808352604092508286019150828160051b87010184880160005b838110156133ff57603f19898403018552815160e081518186526133af82870182612f91565b838b0151878c0152898401518a880152606080850151908801526080808501519088015260a0808501519088015260c0938401511515939096019290925250509386019390860190600101613389565b509098975050505050505050565b602080825282518282018190526000919060409081850190868401855b8281101561347957815180516001600160a01b03168552868101518786015285810151868601526060808201519086015260809081015115159085015260a0909301929085019060010161342a565b5091979650505050505050565b6000806000806080858703121561349c57600080fd5b5050823594602084013594506040840135936060013592509050565b60008060008060008060c087890312156134d157600080fd5b86356001600160401b038111156134e757600080fd5b6134f389828a01613112565b9650506020870135945060408701359350606087013592506080870135915061351e60a0880161322a565b90509295509295509295565b60008060006040848603121561353f57600080fd5b83356001600160401b038082111561355657600080fd5b818601915086601f83011261356a57600080fd5b81358181111561357957600080fd5b87602082850101111561358b57600080fd5b6020928301989097509590910135949350505050565b600080604083850312156135b457600080fd5b6135bd83612e97565b91506135cb6020840161322a565b90509250929050565b600080600080600080600060e0888a0312156135ef57600080fd5b8735965060208801356001600160401b0381111561360c57600080fd5b6136188a828b01613112565b96505060408801359450606088013593506080880135925060a0880135915061364360c0890161322a565b905092959891949750929550565b6000602080838503121561366457600080fd5b82356001600160401b038082111561367b57600080fd5b818501915085601f83011261368f57600080fd5b813561369d6130c882613084565b81815260059190911b830184019084810190888311156136bc57600080fd5b8585015b83811015613771578035858111156136d85760008081fd5b860160e0818c03601f19018113156136f05760008081fd5b6136f861302c565b898301358881111561370a5760008081fd5b6137188e8c83870101613112565b8252506040808401358b830152606080850135828401526080915081850135818401525060a0808501358284015260c0915081850135818401525061375e83850161322a565b90820152855250509186019186016136c0565b5098975050505050505050565b60008060006060848603121561379357600080fd5b833592506020840135915060408401356001600160401b038111156137b757600080fd5b6137c386828701613112565b9150509250925092565b6000806000606084860312156137e257600080fd5b83359250602084013591506137f960408501612e97565b90509250925092565b6000806040838503121561381557600080fd5b61381e83612e97565b91506135cb60208401612e97565b600080600080600060a0868803121561384457600080fd5b61384d86612e97565b945061385b60208701612e97565b9350604086013592506060860135915060808601356001600160401b0381111561388457600080fd5b61321d88828901613112565b602080825260129082015271115d995b9d081a5cc818d85b98d95b1b195960721b604082015260600190565b600181811c908216806138d057607f821691505b6020821081036138f057634e487b7160e01b600052602260045260246000fd5b50919050565b634e487b7160e01b600052603260045260246000fd5b60208082526026908201527f4e6f2068617920737566696369656e746573207469636b65747320646973706f6040820152656e69626c657360d01b606082015260800190565b634e487b7160e01b600052601160045260246000fd5b80820281158282048414176107f6576107f6613952565b60208082526031908201527f456c20636f6d707261646f72206e6f2070756564652073657220656c2063726560408201527061646f72206465206c61206f666572746160781b606082015260800190565b6020808252602e908201527f456c2070726563696f206465206c61206f66657274612064656265207365722060408201526d6d61796f7220717565206365726f60901b606082015260800190565b818103818111156107f6576107f6613952565b600060018201613a4357613a43613952565b5060010190565b601f8211156120eb57600081815260208120601f850160051c81016020861015613a715750805b601f850160051c820191505b81811015610bf257828155600101613a7d565b81516001600160401b03811115613aa957613aa9613016565b613abd81613ab784546138bc565b84613a4a565b602080601f831160018114613af25760008415613ada5750858301515b600019600386901b1c1916600185901b178555610bf2565b600085815260208120601f198616915b82811015613b2157888601518255948401946001909101908401613b02565b5085821015613b3f5787850151600019600388901b60f8161c191681555b5050505050600190811b01905550565b8183823760009101908152919050565b808201808211156107f6576107f6613952565b60008251613b84818460208701612f6d565b9190910192915050565b600082613bab57634e487b7160e01b600052601260045260246000fd5b500490565b6001600160a01b03868116825285166020820152604081018490526060810183905260a060808201819052600090613bea90830184612f91565b979650505050505050565b600060208284031215613c0757600080fd5b8151612f1081612edd565b6001600160a01b0386811682528516602082015260a060408201819052600090613c3e90830186613314565b8281036060840152613c508186613314565b90508281036080840152613c648185612f91565b98975050505050505050565b604081526000613c836040830185613314565b8281036020840152613c958185613314565b9594505050505056fea26469706673582212207b8effe6949922ae308803421fb9f0e42cbf4ddbe3a7792e63504bf11f690dff64736f6c63430008140033","linkReferences":{}},"methodIdentifiers":{"addDiscountCode(string,uint256)":"994983ad","addTicketType(string,uint256,uint256,uint256,uint256,bool)":"9610a8ba","addToWhitelist(address)":"e43252d7","balanceOf(address,uint256)":"00fdd58e","balanceOfBatch(address[],uint256[])":"4e1273f4","buyOferta(uint256,uint256)":"4c80291c","buyOfertaTo(uint256,uint256,address)":"d4b77c27","createOferta(uint256,uint256)":"03e0220e","discountCodes(bytes32)":"c0c116a3","earlyBirdActive()":"2521d948","eventCancelled()":"e1a494d1","getOfertas()":"86532af8","getTicketType(uint256)":"163e0f46","getTicketTypes()":"565f76e9","isApprovedForAll(address,address)":"e985e9c5","isWhitelisted(address)":"3af32abf","ofertas(uint256)":"56afff7c","owner()":"8da5cb5b","purchaseTickets(uint256,uint256,string)":"ce4f473d","registeredUsers(address)":"0e50cee5","removeFromWhitelist(address)":"8ab1d681","renounceOwnership()":"715018a6","safeBatchTransferFrom(address,address,uint256[],uint256[],bytes)":"2eb2c2d6","safeTransferFrom(address,address,uint256,uint256,bytes)":"f242432a","saleActive()":"68428a1b","setApprovalForAll(address,bool)":"a22cb465","setEarlyBirdActive(bool)":"4303352e","setEventCancelled(bool)":"be550e47","setSaleActive(bool)":"841718a6","setTicketPrices(uint256,uint256,uint256,uint256)":"878b60c9","setWhitelistActive(bool)":"c3b754dc","supportsInterface(bytes4)":"01ffc9a7","ticketTypesArray(uint256)":"8186c0c3","transferOwnership(address)":"f2fde38b","updateTicketType(uint256,string,uint256,uint256,uint256,uint256,bool)":"be60aea5","uri(uint256)":"0e89341c","whitelist(address)":"9b19251a","whitelistActive()":"02ce5813","withdraw()":"3ccfd60b","writeAllTicketTypes((string,uint256,uint256,uint256,uint256,uint256,bool)[])":"cb71047c"},"id":19}